{"abi":[{"type":"constructor","inputs":[],"stateMutability":"nonpayable"},{"type":"function","name":"cancel","inputs":[{"name":"user","type":"address","internalType":"address"},{"name":"token","type":"address","internalType":"address"},{"name":"amount","type":"uint256","internalType":"uint256"}],"outputs":[],"stateMutability":"nonpayable"},{"type":"function","name":"getFactoryAddress","inputs":[],"outputs":[{"name":"","type":"address","internalType":"address"}],"stateMutability":"view"},{"type":"function","name":"getHashlock","inputs":[],"outputs":[{"name":"","type":"bytes32","internalType":"bytes32"}],"stateMutability":"view"},{"type":"function","name":"rescueFunds","inputs":[{"name":"token","type":"address","internalType":"address"},{"name":"amount","type":"uint256","internalType":"uint256"}],"outputs":[],"stateMutability":"nonpayable"},{"type":"function","name":"setHashlock","inputs":[{"name":"hashlock","type":"bytes32","internalType":"bytes32"}],"outputs":[],"stateMutability":"nonpayable"},{"type":"function","name":"withdraw","inputs":[{"name":"secret","type":"bytes32","internalType":"bytes32"},{"name":"target","type":"address","internalType":"address"},{"name":"token","type":"address","internalType":"address"},{"name":"amount","type":"uint256","internalType":"uint256"}],"outputs":[],"stateMutability":"nonpayable"},{"type":"event","name":"EscrowCancelled","inputs":[],"anonymous":false},{"type":"event","name":"FundsRescued","inputs":[{"name":"token","type":"address","indexed":false,"internalType":"address"},{"name":"amount","type":"uint256","indexed":false,"internalType":"uint256"}],"anonymous":false},{"type":"event","name":"Withdrawal","inputs":[{"name":"secret","type":"bytes32","indexed":false,"internalType":"bytes32"}],"anonymous":false},{"type":"error","name":"InvalidCaller","inputs":[]},{"type":"error","name":"InvalidFactory","inputs":[]},{"type":"error","name":"InvalidImmutables","inputs":[]},{"type":"error","name":"InvalidSecret","inputs":[]},{"type":"error","name":"InvalidTime","inputs":[]},{"type":"error","name":"NativeTokenSendingFailure","inputs":[]},{"type":"error","name":"SafeERC20FailedOperation","inputs":[{"name":"token","type":"address","internalType":"address"}]}],"bytecode":{"object":"0x60a0806040523461002957336080526105e4908161002e823960805181818160e101526101810152f35b5f80fdfe6040608081526004361015610012575f80fd5b5f3560e01c806330922dfd1461031057806378e3214f146102735780638e0cc176146101a5578063a9c2e36c14610137578063c1dfc98d1461009a5763cafc853c1461005c575f80fd5b34610096575f7ffffffffffffffffffffffffffffffffffffffffffffffffffffffffffffffffc360112610096576020905f549051908152f35b5f80fd5b50346100965760207ffffffffffffffffffffffffffffffffffffffffffffffffffffffffffffffffc3601126100965773ffffffffffffffffffffffffffffffffffffffff7f000000000000000000000000000000000000000000000000000000000000000016330361010e576004355f55005b600490517f7a44db95000000000000000000000000000000000000000000000000000000008152fd5b5034610096575f7ffffffffffffffffffffffffffffffffffffffffffffffffffffffffffffffffc360112610096576020905173ffffffffffffffffffffffffffffffffffffffff7f0000000000000000000000000000000000000000000000000000000000000000168152f35b50346100965760807ffffffffffffffffffffffffffffffffffffffffffffffffffffffffffffffffc36011261009657600435906101e16103a5565b6044359073ffffffffffffffffffffffffffffffffffffffff8216820361009657835f5260205f205f540361024a57916102437f0ce781a18c10c8289803c7c4cfd532d797113c4b41c9701ffad7d0a632ac555b9492602094606435916103c8565b51908152a1005b600483517fabab6bd7000000000000000000000000000000000000000000000000000000008152fd5b503461009657807ffffffffffffffffffffffffffffffffffffffffffffffffffffffffffffffffc360112610096577fc4474c2790e13695f6d2b6f1d8e164290b55370f87a542fd7711abe0a1bf40ac906102cc610382565b61030b602435926102de8433856103c8565b51928392836020909392919373ffffffffffffffffffffffffffffffffffffffff60408201951681520152565b0390a1005b346100965760607ffffffffffffffffffffffffffffffffffffffffffffffffffffffffffffffffc3601126100965761035c61034a610382565b6103526103a5565b90604435916103c8565b7f6e3be9294e58d10b9c8053cfd5e09871b67e442fe394d6b0870d336b9df984a95f80a1005b6004359073ffffffffffffffffffffffffffffffffffffffff8216820361009657565b6024359073ffffffffffffffffffffffffffffffffffffffff8216820361009657565b73ffffffffffffffffffffffffffffffffffffffff16806104a557505f80809381935af13d156104a0573d67ffffffffffffffff8111610473576040519061043860207fffffffffffffffffffffffffffffffffffffffffffffffffffffffffffffffe0601f840116018361056d565b81525f60203d92013e5b1561044957565b60046040517f8a0332d5000000000000000000000000000000000000000000000000000000008152fd5b7f4e487b71000000000000000000000000000000000000000000000000000000005f52604160045260245ffd5b610442565b6040517fa9059cbb00000000000000000000000000000000000000000000000000000000602080830191825273ffffffffffffffffffffffffffffffffffffffff94909416602483015260448083019590955293815290925f9161050a60648261056d565b519082855af115610562575f513d6105595750803b155b6105285750565b602490604051907f5274afe70000000000000000000000000000000000000000000000000000000082526004820152fd5b60011415610521565b6040513d5f823e3d90fd5b90601f7fffffffffffffffffffffffffffffffffffffffffffffffffffffffffffffffe0910116810190811067ffffffffffffffff8211176104735760405256fea2646970667358221220cd3f5689dcac0bac2684f6191703431482b8837417ac399411f9b6af0d27fbe964736f6c63430008170033","linkReferences":{}},"methodIdentifiers":{"cancel(address,address,uint256)":"30922dfd","getFactoryAddress()":"a9c2e36c","getHashlock()":"cafc853c","rescueFunds(address,uint256)":"78e3214f","setHashlock(bytes32)":"c1dfc98d","withdraw(bytes32,address,address,uint256)":"8e0cc176"},"storageLayout":{"storage":[{"astId":52055,"contract":"src/CustomBaseEscrow.sol:CustomBaseEscrow","label":"s_hashlock","offset":0,"slot":"0","type":"t_bytes32"}],"types":{"t_bytes32":{"encoding":"inplace","label":"bytes32","numberOfBytes":"32"}}},"id":85}