{"abi":[{"type":"constructor","inputs":[],"stateMutability":"nonpayable"},{"type":"function","name":"cancel","inputs":[{"name":"user","type":"address","internalType":"address"},{"name":"token","type":"address","internalType":"address"},{"name":"amount","type":"uint256","internalType":"uint256"}],"outputs":[],"stateMutability":"nonpayable"},{"type":"function","name":"getFactoryAddress","inputs":[],"outputs":[{"name":"","type":"address","internalType":"address"}],"stateMutability":"view"},{"type":"function","name":"getHashlock","inputs":[],"outputs":[{"name":"","type":"bytes32","internalType":"bytes32"}],"stateMutability":"view"},{"type":"function","name":"rescueFunds","inputs":[{"name":"token","type":"address","internalType":"address"},{"name":"amount","type":"uint256","internalType":"uint256"}],"outputs":[],"stateMutability":"nonpayable"},{"type":"function","name":"setHashlock","inputs":[{"name":"hashlock","type":"bytes32","internalType":"bytes32"}],"outputs":[],"stateMutability":"nonpayable"},{"type":"function","name":"withdraw","inputs":[{"name":"secret","type":"bytes32","internalType":"bytes32"},{"name":"target","type":"address","internalType":"address"},{"name":"token","type":"address","internalType":"address"},{"name":"amount","type":"uint256","internalType":"uint256"}],"outputs":[],"stateMutability":"nonpayable"},{"type":"event","name":"EscrowCancelled","inputs":[],"anonymous":false},{"type":"event","name":"FundsRescued","inputs":[{"name":"token","type":"address","indexed":false,"internalType":"address"},{"name":"amount","type":"uint256","indexed":false,"internalType":"uint256"}],"anonymous":false},{"type":"event","name":"Withdrawal","inputs":[{"name":"secret","type":"bytes32","indexed":false,"internalType":"bytes32"}],"anonymous":false},{"type":"error","name":"InvalidCaller","inputs":[]},{"type":"error","name":"InvalidFactory","inputs":[]},{"type":"error","name":"InvalidImmutables","inputs":[]},{"type":"error","name":"InvalidSecret","inputs":[]},{"type":"error","name":"InvalidTime","inputs":[]},{"type":"error","name":"NativeTokenSendingFailure","inputs":[]},{"type":"error","name":"SafeERC20FailedOperation","inputs":[{"name":"token","type":"address","internalType":"address"}]}],"bytecode":{"object":"0x60a080604052346100295733608052610650908161002e823960805181818160e101526101810152f35b5f80fdfe6040608081526004361015610012575f80fd5b5f3560e01c806330922dfd1461034b57806378e3214f1461027e5780638e0cc176146101a5578063a9c2e36c14610137578063c1dfc98d1461009a5763cafc853c1461005c575f80fd5b34610096575f7ffffffffffffffffffffffffffffffffffffffffffffffffffffffffffffffffc360112610096576020905f549051908152f35b5f80fd5b50346100965760207ffffffffffffffffffffffffffffffffffffffffffffffffffffffffffffffffc3601126100965773ffffffffffffffffffffffffffffffffffffffff7f000000000000000000000000000000000000000000000000000000000000000016330361010e576004355f55005b600490517f7a44db95000000000000000000000000000000000000000000000000000000008152fd5b5034610096575f7ffffffffffffffffffffffffffffffffffffffffffffffffffffffffffffffffc360112610096576020905173ffffffffffffffffffffffffffffffffffffffff7f0000000000000000000000000000000000000000000000000000000000000000168152f35b50346100965760807ffffffffffffffffffffffffffffffffffffffffffffffffffffffffffffffffc36011261009657600435906101e1610401565b6044359073ffffffffffffffffffffffffffffffffffffffff821680920361009657835f5260205f205f540361025557916102447f0ce781a18c10c8289803c7c4cfd532d797113c4b41c9701ffad7d0a632ac555b949260209460643591610492565b61024e4733610586565b51908152a1005b600483517fabab6bd7000000000000000000000000000000000000000000000000000000008152fd5b503461009657807ffffffffffffffffffffffffffffffffffffffffffffffffffffffffffffffffc360112610096577fc4474c2790e13695f6d2b6f1d8e164290b55370f87a542fd7711abe0a1bf40ac906102d76103de565b6103366024359273ffffffffffffffffffffffffffffffffffffffff83168481155f1461033b57610309915033610586565b51928392836020909392919373ffffffffffffffffffffffffffffffffffffffff60408201951681520152565b0390a1005b610346913390610492565b610309565b346100965760607ffffffffffffffffffffffffffffffffffffffffffffffffffffffffffffffffc360112610096576103b873ffffffffffffffffffffffffffffffffffffffff6103b261039d6103de565b6103a5610401565b9060443593849216610492565b33610586565b7f6e3be9294e58d10b9c8053cfd5e09871b67e442fe394d6b0870d336b9df984a95f80a1005b6004359073ffffffffffffffffffffffffffffffffffffffff8216820361009657565b6024359073ffffffffffffffffffffffffffffffffffffffff8216820361009657565b90601f7fffffffffffffffffffffffffffffffffffffffffffffffffffffffffffffffe0910116810190811067ffffffffffffffff82111761046557604052565b7f4e487b71000000000000000000000000000000000000000000000000000000005f52604160045260245ffd5b6040517fa9059cbb00000000000000000000000000000000000000000000000000000000602080830191825273ffffffffffffffffffffffffffffffffffffffff94909416602483015260448083019590955293815290925f916104f7606482610424565b519082855af11561057b575f513d610572575073ffffffffffffffffffffffffffffffffffffffff81163b155b61052b5750565b60249073ffffffffffffffffffffffffffffffffffffffff604051917f5274afe7000000000000000000000000000000000000000000000000000000008352166004820152fd5b60011415610524565b6040513d5f823e3d90fd5b5f80809381935af13d15610615573d67ffffffffffffffff811161046557604051906105da60207fffffffffffffffffffffffffffffffffffffffffffffffffffffffffffffffe0601f8401160183610424565b81525f60203d92013e5b156105eb57565b60046040517f8a0332d5000000000000000000000000000000000000000000000000000000008152fd5b6105e456fea264697066735822122003ca98fe9be0063da4c45490b5b7f9a25813044529ac0713ffc37345c566ca4464736f6c63430008170033","linkReferences":{}},"methodIdentifiers":{"cancel(address,address,uint256)":"30922dfd","getFactoryAddress()":"a9c2e36c","getHashlock()":"cafc853c","rescueFunds(address,uint256)":"78e3214f","setHashlock(bytes32)":"c1dfc98d","withdraw(bytes32,address,address,uint256)":"8e0cc176"},"storageLayout":{"storage":[{"astId":40842,"contract":"src/CustomEscrowSrc.sol:CustomEscrowSrc","label":"s_hashlock","offset":0,"slot":"0","type":"t_bytes32"}],"types":{"t_bytes32":{"encoding":"inplace","label":"bytes32","numberOfBytes":"32"}}},"id":31}