{"abi":[{"type":"constructor","inputs":[{"name":"factory","type":"address","internalType":"contract IEscrowFactory"},{"name":"lop","type":"address","internalType":"contract IOrderMixin"}],"stateMutability":"nonpayable"},{"type":"receive","stateMutability":"payable"},{"type":"function","name":"arbitraryCalls","inputs":[{"name":"targets","type":"address[]","internalType":"address[]"},{"name":"arguments","type":"bytes[]","internalType":"bytes[]"}],"outputs":[],"stateMutability":"nonpayable"},{"type":"function","name":"cancel","inputs":[{"name":"escrow","type":"address","internalType":"contract IEscrow"},{"name":"immutables","type":"tuple","internalType":"struct IBaseEscrow.Immutables","components":[{"name":"orderHash","type":"bytes32","internalType":"bytes32"},{"name":"hashlock","type":"bytes32","internalType":"bytes32"},{"name":"maker","type":"uint256","internalType":"Address"},{"name":"taker","type":"uint256","internalType":"Address"},{"name":"token","type":"uint256","internalType":"Address"},{"name":"amount","type":"uint256","internalType":"uint256"},{"name":"safetyDeposit","type":"uint256","internalType":"uint256"},{"name":"timelocks","type":"uint256","internalType":"Timelocks"}]}],"outputs":[],"stateMutability":"nonpayable"},{"type":"function","name":"deployDst","inputs":[{"name":"dstImmutables","type":"tuple","internalType":"struct IBaseEscrow.Immutables","components":[{"name":"orderHash","type":"bytes32","internalType":"bytes32"},{"name":"hashlock","type":"bytes32","internalType":"bytes32"},{"name":"maker","type":"uint256","internalType":"Address"},{"name":"taker","type":"uint256","internalType":"Address"},{"name":"token","type":"uint256","internalType":"Address"},{"name":"amount","type":"uint256","internalType":"uint256"},{"name":"safetyDeposit","type":"uint256","internalType":"uint256"},{"name":"timelocks","type":"uint256","internalType":"Timelocks"}]},{"name":"srcCancellationTimestamp","type":"uint256","internalType":"uint256"}],"outputs":[],"stateMutability":"payable"},{"type":"function","name":"deploySrc","inputs":[{"name":"immutables","type":"tuple","internalType":"struct IBaseEscrow.Immutables","components":[{"name":"orderHash","type":"bytes32","internalType":"bytes32"},{"name":"hashlock","type":"bytes32","internalType":"bytes32"},{"name":"maker","type":"uint256","internalType":"Address"},{"name":"taker","type":"uint256","internalType":"Address"},{"name":"token","type":"uint256","internalType":"Address"},{"name":"amount","type":"uint256","internalType":"uint256"},{"name":"safetyDeposit","type":"uint256","internalType":"uint256"},{"name":"timelocks","type":"uint256","internalType":"Timelocks"}]},{"name":"order","type":"tuple","internalType":"struct IOrderMixin.Order","components":[{"name":"salt","type":"uint256","internalType":"uint256"},{"name":"maker","type":"uint256","internalType":"Address"},{"name":"receiver","type":"uint256","internalType":"Address"},{"name":"makerAsset","type":"uint256","internalType":"Address"},{"name":"takerAsset","type":"uint256","internalType":"Address"},{"name":"makingAmount","type":"uint256","internalType":"uint256"},{"name":"takingAmount","type":"uint256","internalType":"uint256"},{"name":"makerTraits","type":"uint256","internalType":"MakerTraits"}]},{"name":"r","type":"bytes32","internalType":"bytes32"},{"name":"vs","type":"bytes32","internalType":"bytes32"},{"name":"amount","type":"uint256","internalType":"uint256"},{"name":"takerTraits","type":"uint256","internalType":"TakerTraits"},{"name":"args","type":"bytes","internalType":"bytes"}],"outputs":[],"stateMutability":"payable"},{"type":"function","name":"withdraw","inputs":[{"name":"escrow","type":"address","internalType":"contract IEscrow"},{"name":"secret","type":"bytes32","internalType":"bytes32"},{"name":"immutables","type":"tuple","internalType":"struct IBaseEscrow.Immutables","components":[{"name":"orderHash","type":"bytes32","internalType":"bytes32"},{"name":"hashlock","type":"bytes32","internalType":"bytes32"},{"name":"maker","type":"uint256","internalType":"Address"},{"name":"taker","type":"uint256","internalType":"Address"},{"name":"token","type":"uint256","internalType":"Address"},{"name":"amount","type":"uint256","internalType":"uint256"},{"name":"safetyDeposit","type":"uint256","internalType":"uint256"},{"name":"timelocks","type":"uint256","internalType":"Timelocks"}]}],"outputs":[],"stateMutability":"nonpayable"},{"type":"error","name":"InvalidLength","inputs":[]},{"type":"error","name":"LengthMismatch","inputs":[]},{"type":"error","name":"NativeTokenSendingFailure","inputs":[]}],"bytecode":{"object":"0x60c03461008c57601f610ba738819003918201601f19168301916001600160401b0383118484101761009057808492604094855283398101031261008c5780516001600160a01b0391828216820361008c5760200151918216820361008c5760805260a052604051610b0290816100a582396080518181816101f6015261062c015260a051816103a30152f35b5f80fd5b634e487b7160e01b5f52604160045260245ffdfe60806040818152600480361015610020575b505050361561001e575f80fd5b005b5f925f3560e01c9081631f3177ba1461081a575080632c3c9a37146106f657838163318b0562146105f3578163a4fc705a146104ce575063ca21827603610011577ffffffffffffffffffffffffffffffffffffffffffffffffffffffffffffffffc3601916102a083126104ca576101008093126104ca57827ffffffffffffffffffffffffffffffffffffffffffffffffffffffffffffffefc3601126104ca576102843567ffffffffffffffff928382116104c657366023830112156104c65781810135948486116104c257602494368688860101116104be5784519182019081118282101761049357908493929184528135815260209081810197873589528582019460443586526060998a8401606435815260808501608435815260a086019160a435835260c087019960c4358b528d60e08901954260e01b7bffffffffffffffffffffffffffffffffffffffffffffffffffffffff60e4351617875273ffffffffffffffffffffffffffffffffffffffff9d51997ffb6bd47e000000000000000000000000000000000000000000000000000000008b52518c8b015251908901525160448801525160648701525160848601525160a4850152865160c48501525160e48401528a61010496858589818c7f0000000000000000000000000000000000000000000000000000000000000000165afa94851561048957829561044d575b508180809251875af1610237610a6f565b5015610425579288959261029a60348c858f98966101a09e839d9b988f7fffffffffffffffffffffffffffffffffffffffff00000000000000000000000090519889961b1689860152018484013781018883820152036014810184520182610a2e565b8851998a977ff497df750000000000000000000000000000000000000000000000000000000089526101a4948635908a0152610124908135908a0152610144803560448b015261016490813560648c015261018492833560848d0152873560a48d01526101c4988c60c48b359101528c60e46101e43591015261020435908d015261022435908c015261024435908b01527f08000000000000000000000000000000000000000000000000000000000000006102643517908a015288015280518093880152845b8381106104095750505090847fffffffffffffffffffffffffffffffffffffffffffffffffffffffffffffffe0601f84868585989786010152011681010301927f0000000000000000000000000000000000000000000000000000000000000000165af190811561040057506103d5578280f35b813d83116103f9575b6103e88183610a2e565b810103126103f6575f808280f35b80fd5b503d6103de565b513d85823e3d90fd5b8082018301518b82018601528b98508a97508c95508201610361565b8488517f8a0332d5000000000000000000000000000000000000000000000000000000008152fd5b9094508581813d8311610482575b6104658183610a2e565b8101031261047e5751888116810361047e579381610226565b5080fd5b503d61045b565b8a513d84823e3d90fd5b856041847f4e487b71000000000000000000000000000000000000000000000000000000005f52525ffd5b8780fd5b8680fd5b8580fd5b8380fd5b929050346105ef576101207ffffffffffffffffffffffffffffffffffffffffffffffffffffffffffffffffc3601126105ef576105096109ca565b6101007fffffffffffffffffffffffffffffffffffffffffffffffffffffffffffffffdc3601126105ea5773ffffffffffffffffffffffffffffffffffffffff1691823b156105ea57839082519384917f90d3252f0000000000000000000000000000000000000000000000000000000083526024359083015260443560248301526064356044830152608435606483015260a435608483015260c43560a483015260e43560c4830152818361010492833560e48401525af19081156105e157506105d15750f35b6105da906109ed565b6103f65780f35b513d84823e3d90fd5b505050fd5b5050fd5b9290507ffffffffffffffffffffffffffffffffffffffffffffffffffffffffffffffffc360161012081126105ea57610100136105ef577f000000000000000000000000000000000000000000000000000000000000000073ffffffffffffffffffffffffffffffffffffffff1691610104833b156106f2576101248592845195869384927fdea024e4000000000000000000000000000000000000000000000000000000008452803590840152602435602484015260443560448401526064356064840152608435608484015260a43560a484015260c43560c484015260e43560e484015280359083015234905af19081156105e157506105d15750f35b8480fd5b509034610816576101407ffffffffffffffffffffffffffffffffffffffffffffffffffffffffffffffffc360112610816576107306109ca565b6101007fffffffffffffffffffffffffffffffffffffffffffffffffffffffffffffffbc3601126108165773ffffffffffffffffffffffffffffffffffffffff1691823b15610816575f9082519384917f233057030000000000000000000000000000000000000000000000000000000083526024359083015260443560248301526064356044830152608435606483015260a435608483015260c43560a483015260e43560c4830152818361010492833560e4840152610124938435908401525af190811561080d5750610803575080f35b61001e91506109ed565b513d5f823e3d90fd5b5f80fd5b9190503461081657827ffffffffffffffffffffffffffffffffffffffffffffffffffffffffffffffffc3601126108165767ffffffffffffffff9080358281116108165761086b9036908301610999565b939060248035858111610816576108859036908601610999565b94909385880361097457505f5b87811061089b57005b8060051b808501359073ffffffffffffffffffffffffffffffffffffffff821682036108165787831015610949578601357fffffffffffffffffffffffffffffffffffffffffffffffffffffffffffffffe187360301811215610816578601908135918983116108165760200190823603821361081657825f80949381948f519384928337810182815203925af1610931610a6f565b501561093f57600101610892565b88513d5f823e3d90fd5b846032857f4e487b71000000000000000000000000000000000000000000000000000000005f52525ffd5b7fff633a38000000000000000000000000000000000000000000000000000000008152fd5b9181601f840112156108165782359167ffffffffffffffff8311610816576020808501948460051b01011161081657565b6004359073ffffffffffffffffffffffffffffffffffffffff8216820361081657565b67ffffffffffffffff8111610a0157604052565b7f4e487b71000000000000000000000000000000000000000000000000000000005f52604160045260245ffd5b90601f7fffffffffffffffffffffffffffffffffffffffffffffffffffffffffffffffe0910116810190811067ffffffffffffffff821117610a0157604052565b3d15610ac7573d9067ffffffffffffffff8211610a015760405191610abc60207fffffffffffffffffffffffffffffffffffffffffffffffffffffffffffffffe0601f8401160184610a2e565b82523d5f602084013e565b60609056fea2646970667358221220de96f3475ee512403d00f08c8757fdec5bf1fa1c60346b5f6770e7669ddabdf064736f6c63430008170033","linkReferences":{}},"methodIdentifiers":{"arbitraryCalls(address[],bytes[])":"1f3177ba","cancel(address,(bytes32,bytes32,uint256,uint256,uint256,uint256,uint256,uint256))":"a4fc705a","deployDst((bytes32,bytes32,uint256,uint256,uint256,uint256,uint256,uint256),uint256)":"318b0562","deploySrc((bytes32,bytes32,uint256,uint256,uint256,uint256,uint256,uint256),(uint256,uint256,uint256,uint256,uint256,uint256,uint256,uint256),bytes32,bytes32,uint256,uint256,bytes)":"ca218276","withdraw(address,bytes32,(bytes32,bytes32,uint256,uint256,uint256,uint256,uint256,uint256))":"2c3c9a37"},"storageLayout":{"storage":[],"types":{}},"id":90}