{"abi":[{"type":"constructor","inputs":[{"name":"limitOrderProtocol","type":"address","internalType":"address"}],"stateMutability":"nonpayable"},{"type":"function","name":"getMakingAmount","inputs":[{"name":"order","type":"tuple","internalType":"struct IOrderMixin.Order","components":[{"name":"salt","type":"uint256","internalType":"uint256"},{"name":"maker","type":"uint256","internalType":"Address"},{"name":"receiver","type":"uint256","internalType":"Address"},{"name":"makerAsset","type":"uint256","internalType":"Address"},{"name":"takerAsset","type":"uint256","internalType":"Address"},{"name":"makingAmount","type":"uint256","internalType":"uint256"},{"name":"takingAmount","type":"uint256","internalType":"uint256"},{"name":"makerTraits","type":"uint256","internalType":"MakerTraits"}]},{"name":"","type":"bytes","internalType":"bytes"},{"name":"","type":"bytes32","internalType":"bytes32"},{"name":"","type":"address","internalType":"address"},{"name":"takingAmount","type":"uint256","internalType":"uint256"},{"name":"","type":"uint256","internalType":"uint256"},{"name":"extraData","type":"bytes","internalType":"bytes"}],"outputs":[{"name":"","type":"uint256","internalType":"uint256"}],"stateMutability":"view"},{"type":"function","name":"getTakingAmount","inputs":[{"name":"order","type":"tuple","internalType":"struct IOrderMixin.Order","components":[{"name":"salt","type":"uint256","internalType":"uint256"},{"name":"maker","type":"uint256","internalType":"Address"},{"name":"receiver","type":"uint256","internalType":"Address"},{"name":"makerAsset","type":"uint256","internalType":"Address"},{"name":"takerAsset","type":"uint256","internalType":"Address"},{"name":"makingAmount","type":"uint256","internalType":"uint256"},{"name":"takingAmount","type":"uint256","internalType":"uint256"},{"name":"makerTraits","type":"uint256","internalType":"MakerTraits"}]},{"name":"","type":"bytes","internalType":"bytes"},{"name":"","type":"bytes32","internalType":"bytes32"},{"name":"","type":"address","internalType":"address"},{"name":"makingAmount","type":"uint256","internalType":"uint256"},{"name":"","type":"uint256","internalType":"uint256"},{"name":"extraData","type":"bytes","internalType":"bytes"}],"outputs":[{"name":"","type":"uint256","internalType":"uint256"}],"stateMutability":"view"},{"type":"function","name":"postInteraction","inputs":[{"name":"order","type":"tuple","internalType":"struct IOrderMixin.Order","components":[{"name":"salt","type":"uint256","internalType":"uint256"},{"name":"maker","type":"uint256","internalType":"Address"},{"name":"receiver","type":"uint256","internalType":"Address"},{"name":"makerAsset","type":"uint256","internalType":"Address"},{"name":"takerAsset","type":"uint256","internalType":"Address"},{"name":"makingAmount","type":"uint256","internalType":"uint256"},{"name":"takingAmount","type":"uint256","internalType":"uint256"},{"name":"makerTraits","type":"uint256","internalType":"MakerTraits"}]},{"name":"extension","type":"bytes","internalType":"bytes"},{"name":"orderHash","type":"bytes32","internalType":"bytes32"},{"name":"taker","type":"address","internalType":"address"},{"name":"makingAmount","type":"uint256","internalType":"uint256"},{"name":"takingAmount","type":"uint256","internalType":"uint256"},{"name":"remainingMakingAmount","type":"uint256","internalType":"uint256"},{"name":"extraData","type":"bytes","internalType":"bytes"}],"outputs":[],"stateMutability":"nonpayable"},{"type":"function","name":"preInteraction","inputs":[{"name":"order","type":"tuple","internalType":"struct IOrderMixin.Order","components":[{"name":"salt","type":"uint256","internalType":"uint256"},{"name":"maker","type":"uint256","internalType":"Address"},{"name":"receiver","type":"uint256","internalType":"Address"},{"name":"makerAsset","type":"uint256","internalType":"Address"},{"name":"takerAsset","type":"uint256","internalType":"Address"},{"name":"makingAmount","type":"uint256","internalType":"uint256"},{"name":"takingAmount","type":"uint256","internalType":"uint256"},{"name":"makerTraits","type":"uint256","internalType":"MakerTraits"}]},{"name":"extension","type":"bytes","internalType":"bytes"},{"name":"orderHash","type":"bytes32","internalType":"bytes32"},{"name":"taker","type":"address","internalType":"address"},{"name":"makingAmount","type":"uint256","internalType":"uint256"},{"name":"takingAmount","type":"uint256","internalType":"uint256"},{"name":"remainingMakingAmount","type":"uint256","internalType":"uint256"},{"name":"extraData","type":"bytes","internalType":"bytes"}],"outputs":[],"stateMutability":"nonpayable"},{"type":"error","name":"OnlyLimitOrderProtocol","inputs":[]}],"bytecode":{"object":"0x60a03461007157601f610a0338819003918201601f19168301916001600160401b038311848410176100755780849260209460405283398101031261007157516001600160a01b038116810361007157608052604051610979908161008a82396080518181816101ab01526104a70152f35b5f80fd5b634e487b7160e01b5f52604160045260245ffdfe6080806040526004361015610012575f80fd5b5f905f3560e01c9081630986bdd514610478575080631d9671c314610421578063462ebde21461017e5763d7ff8a801461004a575f80fd5b3461017b5761006961005b366105d2565b9550935050959350506106c2565b629896809260c08301359184019081851161014e5760a09161008a91610678565b920135838102938185041490151715610121576100a8838383610789565b9383156100f4575009151581018091116100c757602090604051908152f35b7f4e487b71000000000000000000000000000000000000000000000000000000005f52601160045260245ffd5b807f4e487b7100000000000000000000000000000000000000000000000000000000602492526012600452fd5b6024847f4e487b710000000000000000000000000000000000000000000000000000000081526011600452fd5b6024867f4e487b710000000000000000000000000000000000000000000000000000000081526011600452fd5b80fd5b50346103de5761018d36610525565b9290949798959373ffffffffffffffffffffffffffffffffffffffff7f00000000000000000000000000000000000000000000000000000000000000001633036103f757601484116101dd578a80f35b85357fffffffffffffffffffffffffffffffffffffffff00000000000000000000000080821691601487106103e2575b505060601c987fffffffffffffffffffffffffffffffffffffffffffffffffffffffffffffffff85018581116100c7576014116103de57893b156103de576040519a8b998a997f462ebde2000000000000000000000000000000000000000000000000000000008b52803560048c0152602081013560248c0152604081013560448c0152606081013560648c0152608081013560848c015260a081013560a48c015260c081013560c48c015260e0013560e48b01526101048a016101e090526101e48a01906102db92610844565b9561012489015273ffffffffffffffffffffffffffffffffffffffff166101448801526101648701526101848601526101a48501528382037ffffffffffffffffffffffffffffffffffffffffffffffffffffffffffffffffc016101c48501527fffffffffffffffffffffffffffffffffffffffffffffffffffffffffffffffeb01916014019161036b92610844565b03815a5f948591f180156103d35761038b575b8080808080808080808a80f35b905067ffffffffffffffff81116103a6576040525f8061037e565b7f4e487b71000000000000000000000000000000000000000000000000000000005f52604160045260245ffd5b6040513d5f823e3d90fd5b5f80fd5b908092508660140360031b1b16165f8061020d565b60046040517fd25aa106000000000000000000000000000000000000000000000000000000008152fd5b346103de5761043261005b366105d2565b906298968091828402938085048414901517156100c75782018092116100c75760209260a06104686104709460c0850135610678565b920135610789565b604051908152f35b346103de5761048636610525565b5050505050505050505073ffffffffffffffffffffffffffffffffffffffff7f00000000000000000000000000000000000000000000000000000000000000001633036104cf57005b807fd25aa1060000000000000000000000000000000000000000000000000000000060049252fd5b9181601f840112156103de5782359167ffffffffffffffff83116103de57602083818601950101116103de57565b7ffffffffffffffffffffffffffffffffffffffffffffffffffffffffffffffffc81016101e081126103de57610100136103de5760049167ffffffffffffffff610104358181116103de578361057d916004016104f7565b9390939261012435926101443573ffffffffffffffffffffffffffffffffffffffff811681036103de5792610164359261018435926101a435926101c4359182116103de576105ce916004016104f7565b9091565b907ffffffffffffffffffffffffffffffffffffffffffffffffffffffffffffffffc82016101c081126103de57610100136103de5760049167ffffffffffffffff90610104358281116103de578161062c916004016104f7565b9390939261012435926101443573ffffffffffffffffffffffffffffffffffffffff811681036103de5792610164359261018435926101a4359182116103de576105ce916004016104f7565b818102929181159184041417156100c757565b8115610695570490565b7f4e487b71000000000000000000000000000000000000000000000000000000005f52601260045260245ffd5b90806003116103de57813560e81c816007116103de57600383013560e01c9080158015610781575b1561076a5750505f915b81600b116103de57600781013560e01c82600e116103de57826011116103de577fffffffffffffffffffffffffffffffffffffffffffffffffffffffffffffffef6107589301916011810191600b600e83013560e81c92013560e81c810190610882565b81811115610764570390565b50505f90565b620f42409161077a91480261068b565b04916106f4565b5081156106ea565b90917fffffffffffffffffffffffffffffffffffffffffffffffffffffffffffffffff8383099280830292838086109503948086039514610834578483111561081c5790829109815f038216809204600280826003021880830282030280830282030280830282030280830282030280830282030280920290030293600183805f03040190848311900302920304170290565b82634e487b715f52156003026011186020526024601cfd5b505090610841925061068b565b90565b601f82602094937fffffffffffffffffffffffffffffffffffffffffffffffffffffffffffffffe093818652868601375f8582860101520116010190565b90919392814211155f14610897575050505090565b829394919242101561093a57849291925b6108be575061084193508203914290030261068b565b906003908582116103de57823560e81c906005928784116103de5784013560f01c8101948542111561091b575050907ffffffffffffffffffffffffffffffffffffffffffffffffffffffffffffffffb91939201940193846108a8565b925093610841965080955084919350039342900302914203020161068b565b50505050505f9056fea2646970667358221220a79bc939c68f35ea8c130f565d67e2d9bb460d005891fd672d1d594422e91bf364736f6c63430008170033","linkReferences":{}},"methodIdentifiers":{"getMakingAmount((uint256,uint256,uint256,uint256,uint256,uint256,uint256,uint256),bytes,bytes32,address,uint256,uint256,bytes)":"1d9671c3","getTakingAmount((uint256,uint256,uint256,uint256,uint256,uint256,uint256,uint256),bytes,bytes32,address,uint256,uint256,bytes)":"d7ff8a80","postInteraction((uint256,uint256,uint256,uint256,uint256,uint256,uint256,uint256),bytes,bytes32,address,uint256,uint256,uint256,bytes)":"462ebde2","preInteraction((uint256,uint256,uint256,uint256,uint256,uint256,uint256,uint256),bytes,bytes32,address,uint256,uint256,uint256,bytes)":"0986bdd5"},"storageLayout":{"storage":[],"types":{}},"id":29}