{"abi":[{"type":"constructor","inputs":[],"stateMutability":"nonpayable"},{"type":"function","name":"addressOfEscrowDst","inputs":[{"name":"orderHash","type":"bytes32","internalType":"bytes32"}],"outputs":[{"name":"","type":"address","internalType":"address"}],"stateMutability":"view"},{"type":"function","name":"addressOfEscrowSrc","inputs":[{"name":"orderHash","type":"bytes32","internalType":"bytes32"}],"outputs":[{"name":"","type":"address","internalType":"address"}],"stateMutability":"view"},{"type":"function","name":"deployDstEscrow","inputs":[{"name":"token","type":"address","internalType":"address"},{"name":"amount","type":"uint256","internalType":"uint256"},{"name":"safetyDeposit","type":"uint256","internalType":"uint256"},{"name":"orderHash","type":"bytes32","internalType":"bytes32"},{"name":"secretHashlock","type":"bytes32","internalType":"bytes32"}],"outputs":[],"stateMutability":"payable"},{"type":"function","name":"deploySrcEscrow","inputs":[{"name":"orderHash","type":"bytes32","internalType":"bytes32"},{"name":"maker","type":"address","internalType":"address"},{"name":"makerAsset","type":"address","internalType":"address"},{"name":"makingAmount","type":"uint256","internalType":"uint256"},{"name":"safetyDeposit","type":"uint256","internalType":"uint256"},{"name":"chainId","type":"uint256","internalType":"uint256"},{"name":"secretHashlock","type":"bytes32","internalType":"bytes32"}],"outputs":[],"stateMutability":"payable"},{"type":"function","name":"getEscrowDstImplementation","inputs":[],"outputs":[{"name":"","type":"address","internalType":"address"}],"stateMutability":"view"},{"type":"function","name":"getEscrowSrcImplementation","inputs":[],"outputs":[{"name":"","type":"address","internalType":"address"}],"stateMutability":"view"},{"type":"event","name":"DstEscrowCreated","inputs":[{"name":"escrow","type":"address","indexed":false,"internalType":"address"},{"name":"orderHash","type":"bytes32","indexed":false,"internalType":"bytes32"},{"name":"sender","type":"address","indexed":false,"internalType":"address"}],"anonymous":false},{"type":"event","name":"SrcEscrowCreated","inputs":[{"name":"escrow","type":"address","indexed":false,"internalType":"address"},{"name":"orderHash","type":"bytes32","indexed":false,"internalType":"bytes32"},{"name":"sender","type":"address","indexed":false,"internalType":"address"},{"name":"dstImmutablesComplement","type":"tuple","indexed":false,"internalType":"struct ICustomEscrowFactory.DstImmutablesComplement","components":[{"name":"maker","type":"address","internalType":"address"},{"name":"amount","type":"uint256","internalType":"uint256"},{"name":"token","type":"address","internalType":"address"},{"name":"safetyDeposit","type":"uint256","internalType":"uint256"},{"name":"chainId","type":"uint256","internalType":"uint256"}]}],"anonymous":false},{"type":"error","name":"FailedDeployment","inputs":[]},{"type":"error","name":"InsufficientBalance","inputs":[{"name":"balance","type":"uint256","internalType":"uint256"},{"name":"needed","type":"uint256","internalType":"uint256"}]},{"type":"error","name":"InsufficientEscrowBalance","inputs":[]},{"type":"error","name":"InvalidCreationTime","inputs":[]},{"type":"error","name":"InvalidPartialFill","inputs":[]},{"type":"error","name":"InvalidSecretsAmount","inputs":[]},{"type":"error","name":"SafeERC20FailedOperation","inputs":[{"name":"token","type":"address","internalType":"address"}]}],"bytecode":{"object":"0x6101008060405234610164576001600160401b039061067e8181018381118382101761015057829161122c833903905ff0908115610145576001600160a01b03918216608052604051906106e39081830190811183821017610150578291610b49833903905ff09081156101455780610101921660a0526100bc8160805116763d602d80600a3d3981f3363d3d373d3d3d363d73000000906e5af43d82803e903d91602b57fd5bf36020528060115260881c175f52603760092090565b60c05260a05116763d602d80600a3d3981f3363d3d373d3d3d363d73000000906e5af43d82803e903d91602b57fd5bf36020528060115260881c175f52603760092090565b60e0526040516109e0908161016982396080518181816101290152610796015260a0518181816104ae01526106cc015260c05181610727015260e0518161063d0152f35b6040513d5f823e3d90fd5b634e487b7160e01b5f52604160045260245ffd5b5f80fdfe6080806040526004361015610012575f80fd5b5f905f3560e01c90816307f0c0851461074e57508063372408ab146106f057806355e500321461068257806384cb7247146106065780639df706a51461043e5763bac30f4614610060575f80fd5b60e07ffffffffffffffffffffffffffffffffffffffffffffffffffffffffffffffffc36011261043b5773ffffffffffffffffffffffffffffffffffffffff6024351680602435036104375760443573ffffffffffffffffffffffffffffffffffffffff81168103610437576040519160a0830183811067ffffffffffffffff8211176103b5576040528252606435602083015273ffffffffffffffffffffffffffffffffffffffff81166040830152608435606083015260a435608083015261014d346004357f00000000000000000000000000000000000000000000000000000000000000006108dd565b9173ffffffffffffffffffffffffffffffffffffffff83163b1561043357836040517fc1dfc98d00000000000000000000000000000000000000000000000000000000815260c435600482015281816024818373ffffffffffffffffffffffffffffffffffffffff8a165af180156103e95761041f575b50506101007f7db220e5aa09e6ef1d6095686f6f0ce5afe9e31d696d258b2467b0025021b00f9160806040519173ffffffffffffffffffffffffffffffffffffffff87168352600435602084015233604084015273ffffffffffffffffffffffffffffffffffffffff815116606084015260208101518284015273ffffffffffffffffffffffffffffffffffffffff60408201511660a0840152606081015160c0840152015160e0820152a173ffffffffffffffffffffffffffffffffffffffff8116151590816103f4575b6084358331109283156102d2575b5050506102a85780f35b60046040517f34f5151d000000000000000000000000000000000000000000000000000000008152fd5b91925090826102e6575b50505f808061029e565b6020919250602473ffffffffffffffffffffffffffffffffffffffff918260405195869485937f70a08231000000000000000000000000000000000000000000000000000000008552166004840152165afa9081156103e9578291610352575b50606435115f806102dc565b905060203d6020116103e2575b7fffffffffffffffffffffffffffffffffffffffffffffffffffffffffffffffe0601f820116820182811067ffffffffffffffff8211176103b5576020918391604052810103126103b157515f610346565b5080fd5b7f4e487b71000000000000000000000000000000000000000000000000000000005f52604160045260245ffd5b503d61035f565b6040513d84823e3d90fd5b61041a6064358460243573ffffffffffffffffffffffffffffffffffffffff85166107ce565b610290565b610428906107ba565b61043357835f6101c4565b8380fd5b5f80fd5b80fd5b5060a07ffffffffffffffffffffffffffffffffffffffffffffffffffffffffffffffffc3601126104375760043573ffffffffffffffffffffffffffffffffffffffff80821680920361043757811591606435916024359060443580866105c7575b5034036102a8576104d234857f00000000000000000000000000000000000000000000000000000000000000006108dd565b90811694853b15610437576040517fc1dfc98d00000000000000000000000000000000000000000000000000000000815260843560048201525f81602481838b5af180156105bc5761057a575b50917fbfd5e2039d3537cb8378a5ba1d9a6170f92307d49369f6fadd6b2ee64ca254a79593916060959315610567575b5050506040519182526020820152336040820152a180f35b6105729233906107ce565b5f808061054f565b60609593919750916105ae7fbfd5e2039d3537cb8378a5ba1d9a6170f92307d49369f6fadd6b2ee64ca254a79795936107ba565b5f979193955091939561051f565b6040513d5f823e3d90fd5b90508281018091116105d9575f6104a0565b7f4e487b71000000000000000000000000000000000000000000000000000000005f52601160045260245ffd5b346104375760207ffffffffffffffffffffffffffffffffffffffffffffffffffffffffffffffffc360112610437576020610664307f00000000000000000000000000000000000000000000000000000000000000006004356108a7565b73ffffffffffffffffffffffffffffffffffffffff60405191168152f35b34610437575f7ffffffffffffffffffffffffffffffffffffffffffffffffffffffffffffffffc36011261043757602060405173ffffffffffffffffffffffffffffffffffffffff7f0000000000000000000000000000000000000000000000000000000000000000168152f35b346104375760207ffffffffffffffffffffffffffffffffffffffffffffffffffffffffffffffffc360112610437576020610664307f00000000000000000000000000000000000000000000000000000000000000006004356108a7565b34610437575f7ffffffffffffffffffffffffffffffffffffffffffffffffffffffffffffffffc3601126104375760209073ffffffffffffffffffffffffffffffffffffffff7f0000000000000000000000000000000000000000000000000000000000000000168152f35b67ffffffffffffffff81116103b557604052565b92906040519160208301917f23b872dd00000000000000000000000000000000000000000000000000000000835273ffffffffffffffffffffffffffffffffffffffff9485809216602486015216604484015260648301526064825260a082019082821067ffffffffffffffff8311176103b5576020925f92604052519082865af1156105bc575f513d61089e57508082163b155b61086b575050565b60249250604051917f5274afe7000000000000000000000000000000000000000000000000000000008352166004820152fd5b60011415610863565b60559173ffffffffffffffffffffffffffffffffffffffff93600b92604051926040840152602083015281520160ff8153201690565b919091814710610972576037916e5af43d82803e903d91602b57fd5bf382763d602d80600a3d3981f3363d3d373d3d3d363d7300000062ffffff60099560881c16175f5260781b17602052f59073ffffffffffffffffffffffffffffffffffffffff82161561094857565b60046040517fb06ebf3d000000000000000000000000000000000000000000000000000000008152fd5b6044824790604051917fcf47918100000000000000000000000000000000000000000000000000000000835260048301526024820152fdfea26469706673582212205378b1e4227d9e1208f02afbe2269c5ac9aa4c8c4e008919f4ec43fb9aa4483964736f6c6343000817003360a0806040523461002957336080526106b5908161002e823960805181818160e401526101800152f35b5f80fdfe604060808152600480361015610013575f80fd5b5f3560e01c90816330922dfd1461038a57816378e3214f146102ed5781638e0cc176146101a4578163a9c2e36c14610136578163c1dfc98d1461009d575063cafc853c1461005f575f80fd5b34610099575f7ffffffffffffffffffffffffffffffffffffffffffffffffffffffffffffffffc360112610099576020905f549051908152f35b5f80fd5b82346100995760207ffffffffffffffffffffffffffffffffffffffffffffffffffffffffffffffffc3601126100995773ffffffffffffffffffffffffffffffffffffffff7f00000000000000000000000000000000000000000000000000000000000000001633036101105750355f55005b517f7a44db95000000000000000000000000000000000000000000000000000000008152fd5b8234610099575f7ffffffffffffffffffffffffffffffffffffffffffffffffffffffffffffffffc360112610099576020905173ffffffffffffffffffffffffffffffffffffffff7f0000000000000000000000000000000000000000000000000000000000000000168152f35b82346100995760807ffffffffffffffffffffffffffffffffffffffffffffffffffffffffffffffffc360112610099578135916101df610429565b6044359073ffffffffffffffffffffffffffffffffffffffff82168092036100995760643591855f5260205f205f54036102c5578061028e57505f80809381935af16102296104ba565b501561026757507f0ce781a18c10c8289803c7c4cfd532d797113c4b41c9701ffad7d0a632ac555b916020915b6102604733610549565b51908152a1005b90517f8a0332d5000000000000000000000000000000000000000000000000000000008152fd5b7f0ce781a18c10c8289803c7c4cfd532d797113c4b41c9701ffad7d0a632ac555b959350916102c0916020959361058b565b610256565b8385517fabab6bd7000000000000000000000000000000000000000000000000000000008152fd5b823461009957807ffffffffffffffffffffffffffffffffffffffffffffffffffffffffffffffffc360112610099577fc4474c2790e13695f6d2b6f1d8e164290b55370f87a542fd7711abe0a1bf40ac90610346610406565b61038560243592610358843385610517565b51928392836020909392919373ffffffffffffffffffffffffffffffffffffffff60408201951681520152565b0390a1005b346100995760607ffffffffffffffffffffffffffffffffffffffffffffffffffffffffffffffffc360112610099576103e06103c4610406565b6103da6103cf610429565b604435928391610517565b33610549565b7f6e3be9294e58d10b9c8053cfd5e09871b67e442fe394d6b0870d336b9df984a95f80a1005b6004359073ffffffffffffffffffffffffffffffffffffffff8216820361009957565b6024359073ffffffffffffffffffffffffffffffffffffffff8216820361009957565b90601f7fffffffffffffffffffffffffffffffffffffffffffffffffffffffffffffffe0910116810190811067ffffffffffffffff82111761048d57604052565b7f4e487b71000000000000000000000000000000000000000000000000000000005f52604160045260245ffd5b3d15610512573d9067ffffffffffffffff821161048d576040519161050760207fffffffffffffffffffffffffffffffffffffffffffffffffffffffffffffffe0601f840116018461044c565b82523d5f602084013e565b606090565b73ffffffffffffffffffffffffffffffffffffffff169190826105405761053e9250610549565b565b61053e9261058b565b5f80809381935af16105596104ba565b501561056157565b60046040517f8a0332d5000000000000000000000000000000000000000000000000000000008152fd5b6040517fa9059cbb00000000000000000000000000000000000000000000000000000000602080830191825273ffffffffffffffffffffffffffffffffffffffff94909416602483015260448083019590955293815290925f916105f060648261044c565b519082855af115610674575f513d61066b575073ffffffffffffffffffffffffffffffffffffffff81163b155b6106245750565b60249073ffffffffffffffffffffffffffffffffffffffff604051917f5274afe7000000000000000000000000000000000000000000000000000000008352166004820152fd5b6001141561061d565b6040513d5f823e3d90fdfea2646970667358221220888ccef33fdd620fe3f9c664eeb93d74f1d84cf66515526df7b67d329e91310264736f6c6343000817003360a080604052346100295733608052610650908161002e823960805181818160e101526101810152f35b5f80fdfe6040608081526004361015610012575f80fd5b5f3560e01c806330922dfd1461034b57806378e3214f1461027e5780638e0cc176146101a5578063a9c2e36c14610137578063c1dfc98d1461009a5763cafc853c1461005c575f80fd5b34610096575f7ffffffffffffffffffffffffffffffffffffffffffffffffffffffffffffffffc360112610096576020905f549051908152f35b5f80fd5b50346100965760207ffffffffffffffffffffffffffffffffffffffffffffffffffffffffffffffffc3601126100965773ffffffffffffffffffffffffffffffffffffffff7f000000000000000000000000000000000000000000000000000000000000000016330361010e576004355f55005b600490517f7a44db95000000000000000000000000000000000000000000000000000000008152fd5b5034610096575f7ffffffffffffffffffffffffffffffffffffffffffffffffffffffffffffffffc360112610096576020905173ffffffffffffffffffffffffffffffffffffffff7f0000000000000000000000000000000000000000000000000000000000000000168152f35b50346100965760807ffffffffffffffffffffffffffffffffffffffffffffffffffffffffffffffffc36011261009657600435906101e1610401565b6044359073ffffffffffffffffffffffffffffffffffffffff821680920361009657835f5260205f205f540361025557916102447f0ce781a18c10c8289803c7c4cfd532d797113c4b41c9701ffad7d0a632ac555b949260209460643591610492565b61024e4733610586565b51908152a1005b600483517fabab6bd7000000000000000000000000000000000000000000000000000000008152fd5b503461009657807ffffffffffffffffffffffffffffffffffffffffffffffffffffffffffffffffc360112610096577fc4474c2790e13695f6d2b6f1d8e164290b55370f87a542fd7711abe0a1bf40ac906102d76103de565b6103366024359273ffffffffffffffffffffffffffffffffffffffff83168481155f1461033b57610309915033610586565b51928392836020909392919373ffffffffffffffffffffffffffffffffffffffff60408201951681520152565b0390a1005b610346913390610492565b610309565b346100965760607ffffffffffffffffffffffffffffffffffffffffffffffffffffffffffffffffc360112610096576103b873ffffffffffffffffffffffffffffffffffffffff6103b261039d6103de565b6103a5610401565b9060443593849216610492565b33610586565b7f6e3be9294e58d10b9c8053cfd5e09871b67e442fe394d6b0870d336b9df984a95f80a1005b6004359073ffffffffffffffffffffffffffffffffffffffff8216820361009657565b6024359073ffffffffffffffffffffffffffffffffffffffff8216820361009657565b90601f7fffffffffffffffffffffffffffffffffffffffffffffffffffffffffffffffe0910116810190811067ffffffffffffffff82111761046557604052565b7f4e487b71000000000000000000000000000000000000000000000000000000005f52604160045260245ffd5b6040517fa9059cbb00000000000000000000000000000000000000000000000000000000602080830191825273ffffffffffffffffffffffffffffffffffffffff94909416602483015260448083019590955293815290925f916104f7606482610424565b519082855af11561057b575f513d610572575073ffffffffffffffffffffffffffffffffffffffff81163b155b61052b5750565b60249073ffffffffffffffffffffffffffffffffffffffff604051917f5274afe7000000000000000000000000000000000000000000000000000000008352166004820152fd5b60011415610524565b6040513d5f823e3d90fd5b5f80809381935af13d15610615573d67ffffffffffffffff811161046557604051906105da60207fffffffffffffffffffffffffffffffffffffffffffffffffffffffffffffffe0601f8401160183610424565b81525f60203d92013e5b156105eb57565b60046040517f8a0332d5000000000000000000000000000000000000000000000000000000008152fd5b6105e456fea264697066735822122003ca98fe9be0063da4c45490b5b7f9a25813044529ac0713ffc37345c566ca4464736f6c63430008170033","linkReferences":{}},"methodIdentifiers":{"addressOfEscrowDst(bytes32)":"84cb7247","addressOfEscrowSrc(bytes32)":"372408ab","deployDstEscrow(address,uint256,uint256,bytes32,bytes32)":"9df706a5","deploySrcEscrow(bytes32,address,address,uint256,uint256,uint256,bytes32)":"bac30f46","getEscrowDstImplementation()":"55e50032","getEscrowSrcImplementation()":"07f0c085"},"storageLayout":{"storage":[],"types":{}},"id":30}